:100000000C9462000C94D8040C94FF040C948A00A5
:100010000C948A000C948A000C948A000C948A0038
:100020000C948A000C948A000C948A000C948A0028
:100030000C948A000C948A000C948A000C948A0018
:100040000C9426050C948A000C9479080C94AB0847
:100050000C948A000C948A000C948A000C948A00F8
:100060000C948A000C948A00000000080002010031
:100070000003040700000000000000000102040863
:100080001020408001020408102001020408102002
:10009000040404040404040402020202020203032E
:1000A00003030303000000002300260029000000D2
:1000B0000000250028002B0000000000240027007D
:1000C0002A00DB0811241FBECFEFD8E0DEBFCDBF72
:1000D00012E0A0E0B1E0E2E5F4E102C005900D928B
:1000E000A832B107D9F722E0A8E2B2E001C01D9220
:1000F000AC3EB207E1F710E0C4ECD0E004C02297B8
:10010000FE010E94230AC23CD107C9F70E941F09C1
:100110000C94270A0C94000082E00E940B070197C0
:1001200071F483E00E940B07409133025091340236
:100130006091350270913602892B99F40DC083E0ED
:100140000E940B07409133025091340260913502B6
:1001500070913602019729F44F5F5F4F6F4F7F4FC9
:1001600004C0415051096109710940933302509311
:1001700034026093350270933602089583E00E9442
:100180000B07019771F482E00E940B074091330244
:10019000509134026091350270913602019799F4C2
:1001A0000DC082E00E940B0740913302509134024F
:1001B0006091350270913602892B29F44F5F5F4FB1
:1001C0006F4F7F4F04C0415051096109710940933D
:1001D00033025093340260933502709336020895CF
:1001E0008EBD00000DB407FEFDCF8EB50895CF93F0
:1001F000DF93D82FC62F8AE00E94D5066C2F8D2F53
:10020000DF91CF910C94D5061F93CF93DF93EC0130
:1002100060E00E94F70080EA0E94F00080E00E9407
:10022000F000182F61E0CE010E94F70062E070E05C
:1002300080E090E00E949F05812FDF91CF911F9178
:1002400008950F931F93CF93DF93082F162FEA0182
:1002500060E0CA010E94F70082E00E94F000802F57
:100260000E94F000812F0E94F00061E0CE010E9408
:10027000F70062E070E080E090E0DF91CF911F91A5
:100280000F910C949F05CF93DF93D62FC42F48E096
:1002900050E0682F82E30E94210148E050E06D2F7A
:1002A00081E30E94210148E050E06C2F85E3DF915B
:1002B000CF910C942101CF93DF93D62FC42F48E028
:1002C00050E0682F82E40E94210148E050E06D2F49
:1002D00081E40E94210148E050E06C2F85E4DF9129
:1002E000CF910C942101CF93DF93D62FC42F48E0F8
:1002F00050E0682F82E50E94210148E050E06D2F18
:1003000081E50E94210148E050E06C2F85E5DF91F6
:10031000CF910C94210148E050E060E08AE20E9415
:10032000210148E050E068EB89E20E94210148E0A9
:1003300050E065E088E20E94210180912C02882330
:1003400031F068E071E08FE492E00C947209089556
:1003500048E050E063E08BE20E94210180912C0292
:10036000882331F06AE271E08FE492E00C94720924
:1003700008951F93CF93DF93182FEB0160E0CE0118
:100380000E94F70083E00E94F000812F0E94F0009D
:1003900080E00E94F000182F61E0CE010E94F7007B
:1003A00062E070E080E090E00E949F0548E050E04D
:1003B00060E08CE20E942101812FDF91CF911F919B
:1003C0000895CF92DF92EF92FF920F931F93CF93F6
:1003D000DF93062FC3E0D0E048E050E0602F8FE0CD
:1003E0000E94210168E070E08EE00E94B901182FA0
:1003F0000E9470056B017C0160E070E0CB0110177A
:1004000091F0613177428105910594F468E070E0E4
:100410008EE00E94B901182F0E9470056C197D09A9
:100420008E099F09ECCF613177428105910564F017
:1004300080912C02882331F06BE771E08FE492E029
:100440000E947209219741F680912C02882331F095
:1004500065EA71E08FE492E00E946C0980912C02C1
:10046000882339F04AE050E0612F8FE492E00E9447
:10047000E00980912C02882371F06EE671E08FE430
:1004800092E0DF91CF911F910F91FF90EF90DF905D
:10049000CF900C947209DF91CF911F910F91FF9033
:1004A000EF90DF90CF900895FB01E050FE4F48E0C1
:1004B00050E0682F80810C9421011F93CF93DF932C
:1004C000182FEB0160E0CE010E94F700812F0E94FF
:1004D000F00061E0CE010E94F70062E070E080E091
:1004E00090E0DF91CF911F910C949F05CF9368E02E
:1004F00070E080EC0E945D0268E070E08EE00E9497
:10050000B901C82F6DEB71E08FE492E00E946C0995
:10051000C7FD07C068E070E08EE00E94B901C82FF7
:10052000F7CF80912C02882331F062ED71E08FE4E7
:1005300092E00E946C0980912C02882341F04AE0ED
:1005400050E06C2F8FE492E0CF910C94E709CF91AB
:1005500008950E9476020E948B010E94A80160E02B
:1005600080E00C94E10126E040E855E260E070E0B4
:100570008FE492E00E94170881E080933B02109282
:100580002C0261E088E00E949C0661E08AE00E9403
:100590009C0660E082E00E949C0660E083E00E948E
:1005A0009C0660E087E00E949C0661E084E00E9477
:1005B0009C0661E088E00E94D50661E08AE00E9426
:1005C000D50680914402882399F09FB7F8948091D2
:1005D0004402813059F48DB3809342022DB380914F
:1005E0004302809582238DBB9FBF02C0909342023D
:1005F0008CE58CBD1DBC0E9481040E94A90243E0D1
:1006000062E080E40E94430143E062E080E40E94F3
:100610005B0143E062E080E40E9473010E94700588
:10062000609328027093290280932A0290932B02F0
:1006300041E050E06CE870E080E00E94B80441E0E6
:1006400050E06EEB70E081E00E94B80464E670E078
:1006500080E090E00C949F058130910539F0823064
:10066000910531F0892B29F421E803C022E801C06B
:1006700024E868E070E0822F0C945D02CF92DF9254
:10068000EF92FF920F931F93CF93DF9300D01F92AF
:10069000CDB7DEB7182F7B0160E0C7010E94F700DD
:1006A000812F0E94F0008E010F5F1F4F6E0184E0CA
:1006B000C80ED11C80E00E94F000F80181938F01E8
:1006C000EC15FD05B9F761E0C7010E94F7008981CB
:1006D00080933F028B81809340028A818093410204
:1006E00081E00F900F900F90DF91CF911F910F91AC
:1006F000FF90EF90DF90CF9008956823613021F450
:1007000068E070E082E905C0623029F468E070E0DA
:1007100086E90E943E0381E008950F931F93CF93D3
:10072000DF931092300210923E0210923D0281E05F
:1007300080933C020E9470056093370270933802E8
:100740008093390290933A0287E00E940B07019749
:1007500009F075C061E070E080E090E00E949F05C4
:100760000E947005009137021091380220913902E1
:1007700030913A02601B710B820B930B00910001C8
:10078000109101012091020130910301601771075E
:1007900082079307C8F280913C028823A9F2009156
:1007A0004002109141020B3011056CF0B80189E054
:1007B0000E94140668E270E080E090E00E949F05CD
:1007C00005501109F0CF8091330290913402A0912D
:1007D0003502B0913602B7FF1AC060E084E00E9493
:1007E000D5068091330290913402A0913502B091E8
:1007F0003602B7FF07C0B095A095909581959F4FA1
:10080000AF4FBF4F0097A105B10519F410C061E0CB
:10081000E5CF8D329140A105B1051CF06FEF70E07E
:1008200002C06FE770E089E00E941406DACF60E052
:1008300070E089E00E94140610923C0285CF88E0A7
:1008400090E00E9404018093300263E00E947D03E7
:1008500080913F02811102C061E001C060E084E04C
:100860000E94D50664E170E080E090E00E949F0560
:10087000609140027091410289E00E94140620912B
:100880003302309134024AE0429FC001439F900DF1
:100890001124909332028093310297FF0AC0109284
:1008A0002D029195819591099093320280933102A6
:1008B00003C081E080932D02909131028091320239
:1008C00090932E0280932F02CDE2D2E000E010E060
:1008D00043E050E0B80189910E9454020F5F1F4F1E
:1008E00003301105A9F780E090E00E942C0364E139
:1008F00070E080E090E0DF91CF911F910F910C9418
:100900009F05CF93CFB7F89480914502811127C0FE
:10091000EAE9F0E08491E6E8F0E09491E82FF0E075
:10092000EE0FFF1FE854FF4FA591B4918C918923DE
:1009300021F461E08AE00E94D50661E08AE00E942D
:100940009C068CB580618CBD8CB580648CBD61E0EB
:100950008DE00E949C0661E08BE00E949C068091E5
:1009600045028F5F80934502CFBFCF9108950895D0
:100970008230E8F4E82FF0E0EE0FFF1FEC5FFE4F4F
:1009800071836083813041F0809169008C7F842B7A
:1009900080936900E89A089580916900440F551F7B
:1009A000440F551F837F842B80936900E99A089533
:1009B0001F920F920FB60F9211242F933F934F93D4
:1009C0005F936F937F938F939F93AF93BF93EF93B7
:1009D000FF93E0910401F09105010995FF91EF91DA
:1009E000BF91AF919F918F917F916F915F914F9147
:1009F0003F912F910F900FBE0F901F9018951F924F
:100A00000F920FB60F9211242F933F934F935F9342
:100A10006F937F938F939F93AF93BF93EF93FF93C6
:100A2000E0910601F09107010995FF91EF91BF91C7
:100A3000AF919F918F917F916F915F914F913F9176
:100A40002F910F900FBE0F901F9018951F920F922D
:100A50000FB60F9211242F933F938F939F93AF93D1
:100A6000BF938091470290914802A0914902B091B2
:100A70004A023091460223E0230F2D3720F40196DD
:100A8000A11DB11D05C026E8230F0296A11DB11DB1
:100A9000209346028093470290934802A093490214
:100AA000B0934A0280914B0290914C02A0914D026A
:100AB000B0914E020196A11DB11D80934B029093FF
:100AC0004C02A0934D02B0934E02BF91AF919F9103
:100AD0008F913F912F910F900FBE0F901F901895FF
:100AE0002FB7F894609147027091480280914902B3
:100AF00090914A022FBF08953FB7F89480914B021E
:100B000090914C02A0914D02B0914E0226B5A89B47
:100B100005C02F3F19F00196A11DB11D3FBF6627EB
:100B2000782F892F9A2F620F711D811D911D42E030
:100B3000660F771F881F991F4A95D1F708958F92E6
:100B40009F92AF92BF92CF92DF92EF92FF926B0192
:100B50007C010E947C054B015C01C114D104E104BD
:100B6000F104F1F00E94FE090E947C0568197909E0
:100B70008A099B09683E73408105910570F321E065
:100B8000C21AD108E108F10888EE880E83E0981EA9
:100B9000A11CB11CC114D104E104F10429F7DDCF7B
:100BA000FF90EF90DF90CF90BF90AF909F908F908D
:100BB0000895789484B5826084BD84B5816084BDD5
:100BC00085B5826085BD85B5816085BDEEE6F0E0C6
:100BD000808181608083E1E8F0E010828081826022
:100BE0008083808181608083E0E8F0E080818160A3
:100BF0008083E1EBF0E0808184608083E0EBF0E0D3
:100C0000808181608083EAE7F0E080818460808376
:100C10008081826080838081816080838081806820
:100C200080831092C10008951F93CF93DF93182FF4
:100C3000EB0161E00E949C06209711F460E004C083
:100C4000CF3FD10539F461E0812FDF91CF911F9122
:100C50000C94D506E12FF0E0E859FF4FE491E33022
:100C6000F9F048F4E130B9F0E230A1F584B58062E2
:100C700084BDC8BD34C0E730E9F0E83019F1E43094
:100C800049F580918000806280938000D0938B0032
:100C9000C0938A0024C084B5806884BDC7BD1FC0CE
:100CA00080918000806880938000D0938900C093F9
:100CB000880015C08091B00080688093B000C09318
:100CC000B3000DC08091B00080628093B000C093EB
:100CD000B40005C0C038D1050CF0B5CFAFCFDF915F
:100CE000CF911F910895833081F028F4813099F0DD
:100CF0008230A1F008958730A9F08830B9F08430AF
:100D0000D1F4809180008F7D03C0809180008F7727
:100D100080938000089584B58F7702C084B58F7D5D
:100D200084BD08958091B0008F7703C08091B0009A
:100D30008F7D8093B0000895CF93DF9390E0FC0106
:100D4000E458FF4F2491FC01E057FF4F8491882322
:100D500049F190E0880F991FFC01E854FF4FA591DD
:100D6000B49182559F4FFC01C591D4919FB76111F9
:100D700008C0F8948C91209582238C9388818223DB
:100D80000AC0623051F4F8948C91322F309583234D
:100D90008C938881822B888304C0F8948C91822B59
:100DA0008C939FBFDF91CF9108950F931F93CF93A3
:100DB000DF931F92CDB7DEB7282F30E0F901E85955
:100DC000FF4F8491F901E458FF4F1491F901E05766
:100DD000FF4F04910023C9F0882321F069830E940A
:100DE00073066981E02FF0E0EE0FFF1FE255FF4F21
:100DF000A591B4919FB7F8948C91611103C010959F
:100E0000812301C0812B8C939FBF0F90DF91CF91E5
:100E10001F910F910895CF93DF93282F30E0F901B0
:100E2000E859FF4F8491F901E458FF4FD491F9013B
:100E3000E057FF4FC491CC2391F081110E947306BB
:100E4000EC2FF0E0EE0FFF1FEC55FF4FA591B49192
:100E50002C912D2381E090E021F480E002C080E01D
:100E600090E0DF91CF910895FC01818D228D90E07B
:100E7000805C9F4F821B91098F7399270895FC0115
:100E8000918D828D981731F0828DE80FF11D858D3F
:100E900090E008958FEF9FEF0895FC01918D828D72
:100EA000981761F0828DDF01A80FB11D5D968C91BE
:100EB000928D9F5F9F73928F90E008958FEF9FEFC9
:100EC000089581ED98E0892B49F080E090E0892B2E
:100ED00029F00E94D10881110C9400000895FC01B2
:100EE000848DDF01A80FB11DA35ABF4F2C91848DB3
:100EF00090E001968F739927848FA689B7892C93E8
:100F0000A089B1898C9180648C93938D848D981382
:100F100006C00288F389E02D80818F7D808308954B
:100F2000CF93DF93EC01888D8823C9F0EA89FB8990
:100F3000808185FD05C0A889B9898C9186FD0FC087
:100F40000FB607FCF5CF808185FFF2CFA889B9895C
:100F50008C9185FFEDCFCE010E946F07E7CFDF9127
:100F6000CF910895CF92DF92FF920F931F93CF936B
:100F7000DF931F92CDB7DEB76C0181E0D6015896A2
:100F80008C9358975B969C915B975C968C915C9741
:100F9000981307C05096ED91FC915197808185FD83
:100FA0002EC0F601038D10E00F5F1F4F0F73112746
:100FB000F02EF601848DF81211C00FB607FCF9CFA0
:100FC000D6015096ED91FC915197808185FFF1CF2C
:100FD000C60169830E946F076981EBCF838DE80F9B
:100FE000F11DE35AFF4F6083D6015B960C935B972C
:100FF0005296ED91FC915397808180620CC0D6018E
:101000005696ED91FC91579760835096ED91FC9127
:10101000519780818064808381E090E00F90DF9120
:10102000CF911F910F91FF90DF90CF900895BF92C5
:10103000CF92DF92EF92FF92CF93DF93EC016A01A0
:101040007B01B22EE889F98982E08083411581EE27
:10105000580761057105A1F060E079E08DE390E04B
:10106000A70196010E94FF09215031094109510948
:101070005695479537952795211580E1380798F0C3
:10108000E889F989108260E874E88EE190E0A701B0
:1010900096010E94FF0921503109410951095695D5
:1010A000479537952795EC85FD853083EE85FF853F
:1010B0002083188EEC89FD89B082EA89FB898081C2
:1010C00080618083EA89FB89808188608083EA89E6
:1010D000FB89808180688083EA89FB8980818F7D9C
:1010E0008083DF91CF91FF90EF90DF90CF90BF9002
:1010F00008951F920F920FB60F9211242F938F9382
:101100009F93EF93FF93E0915F02F09160028081E3
:10111000E0916502F091660282FD12C0908180919B
:1011200068028F5F8F7320916902821751F0E091FE
:101130006802F0E0E15BFD4F958F8093680201C08B
:101140008081FF91EF919F918F912F910F900FBE12
:101150000F901F9018951F920F920FB60F921124A7
:101160002F933F934F935F936F937F938F939F93AF
:10117000AF93BF93EF93FF938FE492E00E946F07CA
:10118000FF91EF91BF91AF919F918F917F916F915F
:101190005F914F913F912F910F900FBE0F901F9035
:1011A00018958FE492E00E94340721E0892B09F41E
:1011B00020E0822F0895109252021092510288EE80
:1011C00093E0A0E0B0E08093530290935402A09388
:1011D0005502B09356028CE092E0909350028093B7
:1011E0004F0285EC90E090935C0280935B0284EC6C
:1011F00090E090935E0280935D0280EC90E090938B
:10120000600280935F0281EC90E090936202809391
:10121000610282EC90E0909364028093630286EC1A
:1012200090E090936602809365021092680210929B
:10123000690210926A0210926B02089508950E944A
:10124000D9050E941E090E94B302C1E6D7E00E94A0
:101250008D032097E1F30E946107F9CFCF92DF92CF
:10126000EF92FF920F931F93CF93DF937C016A015C
:10127000EB0100E010E00C151D0571F06991D7013C
:10128000ED91FC910190F081E02DC7010995892B2A
:1012900019F00F5F1F4FEFCFC801DF91CF911F9162
:1012A0000F91FF90EF90DF90CF9008956115710539
:1012B00081F0DB010D900020E9F7AD0141505109AB
:1012C000461B570BDC01ED91FC910280F381E02D70
:1012D000099480E090E008950C94560968E172E06A
:1012E0000C9456090F931F93CF93DF93EC010E9448
:1012F00056098C01CE010E946E09800F911FDF916B
:10130000CF911F910F9108958F929F92AF92BF92AC
:10131000DF92EF92FF920F931F93CF93DF93CDB79E
:10132000DEB7A1970FB6F894DEBF0FBECDBF7C012C
:10133000F42FD52ECB0119A2223008F42AE08E0119
:101340000F5D1F4F822E912CA12CB12C6F2F7D2D64
:10135000A50194010E94FF09F22FD32ECA0101506A
:1013600011096A3014F4E0E301C0E7E3E60FD801A5
:10137000EC93232B242B252B49F7B801C7010E949E
:101380005609A1960FB6F894DEBF0FBECDBFDF9110
:10139000CF911F910F91FF90EF90DF90BF90AF9092
:1013A0009F908F9008952115310541F4DC01ED9156
:1013B000FC910190F081E02D642F09940C94840934
:1013C0009A01462F50E060E070E00C94D3090F932F
:1013D0001F93CF93DF93EC019A01462F50E060E01A
:1013E00070E00E94D3098C01CE010E946E09800F2B
:1013F000911FDF91CF911F910F9108950895A1E260
:101400001A2EAA1BBB1BFD010DC0AA1FBB1FEE1F7E
:10141000FF1FA217B307E407F50720F0A21BB30BC9
:10142000E40BF50B661F771F881F991F1A9469F745
:1014300060957095809590959B01AC01BD01CF01A1
:101440000895EE0FFF1F0590F491E02D0994F89494
:02145000FFCFCC
:10145200A00F0000B704B7044D6370323531352058
:10146200636F6E6669677572652062757320737546
:101472006363657366756C6C79004D6370323531E8
:101482003520636F6E66696775726520696E746573
:101492007272757074732073756363657366756CAD
:1014A2006C79004D63703235313520636F6E666939
:1014B2006775726520727820627566666572207340
:1014C200756363657366756C6C790041626F7274E3
:1014D2002077616974696E672E204D61782E2077BE
:1014E200616974696E672074696D652072656163F4
:1014F2006865642E004D637032353135207377692B
:1015020074636820746F206D6F6465200054727973
:1015120020746F207265736574204D6370323531AB
:1015220035004D6370323531352072657365742034
:1015320073756363657366756C6C7920616E642084
:1015420073776974636820646F206D6F646520002F
:10155200363738393A3B3C3D00000000B2072E09CD
:1015620034074D073F0790070D0A006E616E006950
:081572006E66006F7666000052
:00000001FF
