:100000000C9462000C9475040C949C040C948A006B
:100010000C948A000C948A000C948A000C948A0038
:100020000C948A000C948A000C948A000C948A0028
:100030000C948A000C948A000C948A000C948A0018
:100040000C94C3040C948A000C9416080C94480871
:100050000C948A000C948A000C948A000C948A00F8
:100060000C948A000C948A00000000080002010031
:100070000003040700000000000000000102040863
:100080001020408001020408102001020408102002
:10009000040404040404040402020202020203032E
:1000A00003030303000000002300260029000000D2
:1000B0000000250028002B0000000000240027007D
:1000C0002A00780811241FBECFEFD8E0DEBFCDBFD5
:1000D00012E0A0E0B1E0ECE8F3E102C005900D927F
:1000E000A832B107D9F722E0A8E2B2E001C01D9220
:1000F000A73EB207E1F710E0C4ECD0E004C02297BD
:10010000FE010E94C009C23CD107C9F70E94BC0889
:100110000C94C4090C94000082E00E94A806019788
:1001200051F483E00E94A8062091310230913202FE
:10013000892B69F409C083E00E94A806209131024E
:1001400030913202019719F42F5F3F4F02C02150C6
:1001500031093093320220933102089583E00E94E6
:10016000A806019751F482E00E94A806209131026E
:1001700030913202019769F409C082E00E94A8061A
:100180002091310230913202892B19F42F5F3F4FB9
:1001900002C0215031093093320220933102089578
:1001A0008EBD00000DB407FEFDCF8EB50895CF9330
:1001B000DF93D82FC62F8AE00E9472066C2F8D2FF6
:1001C000DF91CF910C9472061F93CF93DF93EC01D4
:1001D00060E00E94D70080EA0E94D00080E00E9488
:1001E000D000182F61E0CE010E94D70062E070E0DD
:1001F00080E090E00E943C05812FDF91CF911F911C
:1002000008950F931F93CF93DF93082F162FEA01C2
:1002100060E0CA010E94D70082E00E94D000802FD7
:100220000E94D000812F0E94D00061E0CE010E9488
:10023000D70062E070E080E090E0DF91CF911F9105
:100240000F910C943C05CF93DF93D62FC42F48E039
:1002500050E0682F82E30E94010148E050E06D2FDA
:1002600081E30E94010148E050E06C2F85E3DF91BB
:10027000CF910C940101CF93DF93D62FC42F48E088
:1002800050E0682F82E40E94010148E050E06D2FA9
:1002900081E40E94010148E050E06C2F85E4DF9189
:1002A000CF910C940101CF93DF93D62FC42F48E058
:1002B00050E0682F82E50E94010148E050E06D2F78
:1002C00081E50E94010148E050E06C2F85E5DF9157
:1002D000CF910C94010148E050E060E08AE20E9476
:1002E000010148E050E068EB89E20E94010148E02A
:1002F00050E065E088E20E94010180912C02882391
:1003000031F068E071E08AE492E00C940F090895FE
:1003100048E050E063E08BE20E94010180912C02F2
:10032000882331F06AE271E08AE492E00C940F09CC
:1003300008951F93CF93DF93182FEB0160E0CE0158
:100340000E94D70083E00E94D000812F0E94D0003D
:1003500080E00E94D000182F61E0CE010E94D700FB
:1003600062E070E080E090E00E943C0548E050E0F0
:1003700060E08CE20E940101812FDF91CF911F91FB
:100380000895CF92DF92EF92FF920F931F93CF9336
:10039000DF93062FC3E0D0E048E050E0602F8FE00D
:1003A0000E94010168E070E08EE00E949901182F20
:1003B0000E940D056B017C0160E070E0CB0110171D
:1003C00091F0613177428105910594F468E070E025
:1003D0008EE00E949901182F0E940D056C197D096D
:1003E0008E099F09ECCF613177428105910564F058
:1003F00080912C02882331F06BE771E08AE492E06F
:100400000E940F09219741F680912C02882331F038
:1004100065EA71E08AE492E00E94090980912C0269
:10042000882339F04AE050E0612F8AE492E00E948C
:100430007D0980912C02882371F06EE671E08AE4D8
:1004400092E0DF91CF911F910F91FF90EF90DF909D
:10045000CF900C940F09DF91CF911F910F91FF90D6
:10046000EF90DF90CF900895FB01E050FE4F48E001
:1004700050E0682F80810C9401011F93CF93DF938C
:10048000182FEB0160E0CE010E94D700812F0E945F
:10049000D00061E0CE010E94D70062E070E080E011
:1004A00090E0DF91CF911F910C943C05CF9368E0D1
:1004B00070E080EC0E943D0268E070E08EE00E94F7
:1004C0009901C82F6DEB71E08AE492E00E9409095E
:1004D000C7FD07C068E070E08EE00E949901C82F58
:1004E000F7CF80912C02882331F062ED71E08AE42D
:1004F00092E00E94090980912C02882341F04AE091
:1005000050E06C2F8AE492E0CF910C948409CF9153
:1005100008950E9456020E946B010E94880160E0CB
:1005200080E00C94C10126E040E855E260E070E014
:100530008AE492E00E94B40710922C0261E088E005
:100540000E94390661E08AE00E94390660E082E09C
:100550000E94390660E083E00E94390660E087E08F
:100560000E94390661E084E00E94390661E088E07B
:100570000E94720661E08AE00E94720680913F024A
:10058000882399F09FB7F89480913F02813059F405
:100590008DB380933D022DB380913E0280958223DE
:1005A0008DBB9FBF02C090933D028CE58CBD1DBCEE
:1005B0000E941E040E94890243E062E080E40E94DF
:1005C000230143E062E080E40E943B0143E062E0FB
:1005D00080E40E9453010E940D05609328027093ED
:1005E000290280932A0290932B0241E050E06CE8AC
:1005F00070E080E00E94550441E050E06EEA70E057
:1006000081E00E94550464E670E080E090E00C9484
:100610003C058130910539F08230910531F0892B0C
:1006200029F421E803C022E801C024E868E070E072
:10063000822F0C943D02CF92DF92EF92FF920F93A4
:100640001F93CF93DF9300D01F92CDB7DEB7182F43
:100650007B0160E0C7010E94D700812F0E94D0007B
:100660008E010F5F1F4F6E0184E0C80ED11C80E029
:100670000E94D000F80181938F01EC15FD05B9F7B8
:1006800061E0C7010E94D700898180933A028B8183
:1006900080933B028A8180933C0281E00F900F900F
:1006A0000F90DF91CF911F910F91FF90EF90DF900E
:1006B000CF9008956823613021F468E070E082E90A
:1006C00005C0623029F468E070E086E90E941B03EF
:1006D00081E008950F931F93CF93DF931092300220
:1006E000109239021092380281E0809337020E9402
:1006F0000D0560933302709334028093350290931A
:10070000360287E00E94A806019709F041C061E027
:1007100070E080E090E00E943C050E940D05009191
:100720003302109134022091350230913602601B61
:10073000710B820B930B009100011091010120912C
:100740000201309103016017710782079307C8F215
:10075000809137028823A9F200913B0210913C025C
:100760000B3011056CF0B80189E00E94B10568E218
:1007700070E080E090E00E943C0505501109F0CF48
:1007800060E070E089E00E94B10510923702B9CFB5
:1007900088E090E00E94E4008093300263E00E94D1
:1007A0005A0380913A02811102C061E001C060E009
:1007B00084E00E94720664E170E080E090E00E94B4
:1007C0003C0560913B0270913C0289E00E94B105BA
:1007D000809131029091320297FF07C091958195E7
:1007E0009109909332028093310280913A02809372
:1007F0002D0280913B0280932E0280913C028093D7
:100800002F02CDE2D2E000E010E043E050E0B8017A
:1008100089910E9434020F5F1F4F03301105A9F721
:1008200080E090E00E94090364E170E080E090E0E5
:10083000DF91CF911F910F910C943C05CF93CFB7CF
:10084000F89480914002811127C0EAE9F0E0849198
:10085000E6E8F0E09491E82FF0E0EE0FFF1FE85497
:10086000FF4FA591B4918C91892321F461E08AE036
:100870000E94720661E08AE00E9439068CB58061B0
:100880008CBD8CB580648CBD61E08DE00E94390622
:1008900061E08BE00E943906809140028F5F809377
:1008A0004002CFBFCF91089508958230E8F4E82F39
:1008B000F0E0EE0FFF1FEC5FFE4F7183608381302D
:1008C00041F0809169008C7F842B80936900E89AC5
:1008D000089580916900440F551F440F551F837F71
:1008E000842B80936900E99A08951F920F920FB6A6
:1008F0000F9211242F933F934F935F936F937F93A6
:100900008F939F93AF93BF93EF93FF93E091040175
:10091000F09105010995FF91EF91BF91AF919F91E2
:100920008F917F916F915F914F913F912F910F9098
:100930000FBE0F901F9018951F920F920FB60F9237
:1009400011242F933F934F935F936F937F938F93D4
:100950009F93AF93BF93EF93FF93E0910601F091C4
:1009600007010995FF91EF91BF91AF919F918F91F1
:100970007F916F915F914F913F912F910F900FBE9B
:100980000F901F9018951F920F920FB60F9211247F
:100990002F933F938F939F93AF93BF938091420286
:1009A00090914302A0914402B091450230914102DE
:1009B00023E0230F2D3720F40196A11DB11D05C0A2
:1009C00026E8230F0296A11DB11D209341028093BA
:1009D000420290934302A0934402B0934502809157
:1009E000460290914702A0914802B09149020196B7
:1009F000A11DB11D8093460290934702A093480227
:100A0000B0934902BF91AF919F918F913F912F91E8
:100A10000F900FBE0F901F9018952FB7F89460910C
:100A200042027091430280914402909145022FBF8F
:100A300008953FB7F8948091460290914702A091A3
:100A40004802B091490226B5A89B05C02F3F19F076
:100A50000196A11DB11D3FBF6627782F892F9A2FC0
:100A6000620F711D811D911D42E0660F771F881F67
:100A7000991F4A95D1F708958F929F92AF92BF9296
:100A8000CF92DF92EF92FF926B017C010E941905D9
:100A90004B015C01C114D104E104F104F1F00E94A6
:100AA0009B090E941905681979098A099B09683E02
:100AB00073408105910570F321E0C21AD108E10865
:100AC000F10888EE880E83E0981EA11CB11CC114A9
:100AD000D104E104F10429F7DDCFFF90EF90DF901E
:100AE000CF90BF90AF909F908F900895789484B5E9
:100AF000826084BD84B5816084BD85B5826085BD1A
:100B000085B5816085BDEEE6F0E0808181608083FF
:100B1000E1E8F0E0108280818260808380818160E2
:100B20008083E0E8F0E0808181608083E1EBF0E0A9
:100B3000808184608083E0EBF0E08081816080834D
:100B4000EAE7F0E080818460808380818260808336
:100B50008081816080838081806880831092C10061
:100B600008951F93CF93DF93182FEB0161E00E944C
:100B70003906209711F460E004C0CF3FD10539F465
:100B800061E0812FDF91CF911F910C947206E12FCC
:100B9000F0E0E859FF4FE491E330F9F048F4E13038
:100BA000B9F0E230A1F584B5806284BDC8BD34C01F
:100BB000E730E9F0E83019F1E43049F58091800040
:100BC000806280938000D0938B00C0938A0024C001
:100BD00084B5806884BDC7BD1FC0809180008068D7
:100BE00080938000D0938900C093880015C08091C5
:100BF000B00080688093B000C093B3000DC08091B6
:100C0000B00080628093B000C093B40005C0C038CB
:100C1000D1050CF0B5CFAFCFDF91CF911F910895E3
:100C2000833081F028F4813099F08230A1F008956A
:100C30008730A9F08830B9F08430D1F480918000F9
:100C40008F7D03C0809180008F778093800008950E
:100C500084B58F7702C084B58F7D84BD089580915F
:100C6000B0008F7703C08091B0008F7D8093B0007B
:100C70000895CF93DF9390E0FC01E458FF4F249157
:100C8000FC01E057FF4F8491882349F190E0880FE1
:100C9000991FFC01E854FF4FA591B49182559F4FD5
:100CA000FC01C591D4919FB7611108C0F8948C9153
:100CB000209582238C93888182230AC0623051F46C
:100CC000F8948C91322F309583238C938881822BDA
:100CD000888304C0F8948C91822B8C939FBFDF9102
:100CE000CF9108950F931F93CF93DF931F92CDB7AA
:100CF000DEB7282F30E0F901E859FF4F8491F90160
:100D0000E458FF4F1491F901E057FF4F049100237D
:100D1000C9F0882321F069830E9410066981E02FC1
:100D2000F0E0EE0FFF1FE255FF4FA591B4919FB782
:100D3000F8948C91611103C01095812301C0812B1F
:100D40008C939FBF0F90DF91CF911F910F910895CA
:100D5000CF93DF93282F30E0F901E859FF4F8491BA
:100D6000F901E458FF4FD491F901E057FF4FC491C6
:100D7000CC2391F081110E941006EC2FF0E0EE0FD1
:100D8000FF1FEC55FF4FA591B4912C912D2381E0CD
:100D900090E021F480E002C080E090E0DF91CF910C
:100DA0000895FC01818D228D90E0805C9F4F821B15
:100DB00091098F7399270895FC01918D828D981761
:100DC00031F0828DE80FF11D858D90E008958FEF51
:100DD0009FEF0895FC01918D828D981761F0828DAF
:100DE000DF01A80FB11D5D968C91928D9F5F9F735F
:100DF000928F90E008958FEF9FEF08958EE698E030
:100E0000892B49F080E090E0892B29F00E946E0840
:100E100081110C9400000895FC01848DDF01A80F5E
:100E2000B11DA35ABF4F2C91848D90E001968F7312
:100E30009927848FA689B7892C93A089B1898C9131
:100E400080648C93938D848D981306C00288F389F7
:100E5000E02D80818F7D80830895CF93DF93EC0117
:100E6000888D8823C9F0EA89FB89808185FD05C0CA
:100E7000A889B9898C9186FD0FC00FB607FCF5CF04
:100E8000808185FFF2CFA889B9898C9185FFEDCF4C
:100E9000CE010E940C07E7CFDF91CF910895CF924A
:100EA000DF92FF920F931F93CF93DF931F92CDB7E3
:100EB000DEB76C0181E0D60158968C9358975B960B
:100EC0009C915B975C968C915C97981307C05096A9
:100ED000ED91FC915197808185FD2EC0F601038D27
:100EE00010E00F5F1F4F0F731127F02EF601848D56
:100EF000F81211C00FB607FCF9CFD6015096ED914C
:100F0000FC915197808185FFF1CFC60169830E94D2
:100F10000C076981EBCF838DE80FF11DE35AFF4F7A
:100F20006083D6015B960C935B975296ED91FC9192
:100F30005397808180620CC0D6015696ED91FC914A
:100F4000579760835096ED91FC9151978081806412
:100F5000808381E090E00F90DF91CF911F910F91FE
:100F6000FF90DF90CF900895BF92CF92DF92EF92E3
:100F7000FF92CF93DF93EC016A017B01B22EE889E7
:100F8000F98982E08083411581EE5807610571057A
:100F9000A1F060E079E08DE390E0A70196010E9466
:100FA0009C092150310941095109569547953795BA
:100FB0002795211580E1380798F0E889F989108292
:100FC00060E874E88EE190E0A70196010E949C0918
:100FD0002150310941095109569547953795279573
:100FE000EC85FD853083EE85FF852083188EEC89A6
:100FF000FD89B082EA89FB89808180618083EA89EA
:10100000FB89808188608083EA89FB898081806890
:101010008083EA89FB8980818F7D8083DF91CF91F6
:10102000FF90EF90DF90CF90BF9008951F920F92A6
:101030000FB60F9211242F938F939F93EF93FF93EB
:10104000E0915A02F0915B028081E0916002F091A0
:10105000610282FD12C09081809163028F5F8F7365
:1010600020916402821751F0E0916302F0E0E65BA8
:10107000FD4F958F8093630201C08081FF91EF91B6
:101080009F918F912F910F900FBE0F901F901895E9
:101090001F920F920FB60F9211242F933F934F93ED
:1010A0005F936F937F938F939F93AF93BF93EF93D0
:1010B000FF938AE492E00E940C07FF91EF91BF91A9
:1010C000AF919F918F917F916F915F914F913F91E0
:1010D0002F910F900FBE0F901F9018958AE492E009
:1010E0000E94D10621E0892B09F420E0822F089587
:1010F00010924D0210924C0288EE93E0A0E0B0E016
:1011000080934E0290934F02A0935002B0935102ED
:101110008CE092E090934B0280934A0285EC90E041
:10112000909357028093560284EC90E0909359027A
:101130008093580280EC90E090935B0280935A0277
:1011400081EC90E090935D0280935C0282EC90E0F1
:1011500090935F0280935E0286EC90E09093610230
:1011600080936002109263021092640210926502F2
:1011700010926602089508950E9476050E94BB08A9
:101180000E949302CEEFD6E00E946A032097E1F31B
:101190000E94FE06F9CFCF92DF92EF92FF920F935B
:1011A0001F93CF93DF937C016A01EB0100E010E015
:1011B0000C151D0571F06991D701ED91FC9101901D
:1011C000F081E02DC7010995892B19F00F5F1F4FA2
:1011D000EFCFC801DF91CF911F910F91FF90EF905A
:1011E000DF90CF9008956115710581F0DB010D90BE
:1011F0000020E9F7AD0141505109461B570BDC01B6
:10120000ED91FC910280F381E02D099480E090E063
:1012100008950C94F30868E172E00C94F3080F93BE
:101220001F93CF93DF93EC010E94F3088C01CE0152
:101230000E940B09800F911FDF91CF911F910F9199
:1012400008958F929F92AF92BF92DF92EF92FF929A
:101250000F931F93CF93DF93CDB7DEB7A1970FB650
:10126000F894DEBF0FBECDBF7C01F42FD52ECB018D
:1012700019A2223008F42AE08E010F5D1F4F822E42
:10128000912CA12CB12C6F2F7D2DA50194010E94D2
:101290009C09F22FD32ECA01015011096A3014F4AF
:1012A000E0E301C0E7E3E60FD801EC93232B242B06
:1012B000252B49F7B801C7010E94F308A1960FB684
:1012C000F894DEBF0FBECDBFDF91CF911F910F917C
:1012D000FF90EF90DF90BF90AF909F908F90089518
:1012E0002115310541F4DC01ED91FC910190F08173
:1012F000E02D642F09940C9421099A01462F50E0A7
:1013000060E070E00C9470090F931F93CF93DF930C
:10131000EC019A01462F50E060E070E00E947009F5
:101320008C01CE010E940B09800F911FDF91CF919C
:101330001F910F9108950895A1E21A2EAA1BBB1BBD
:10134000FD010DC0AA1FBB1FEE1FFF1FA217B30791
:10135000E407F50720F0A21BB30BE40BF50B661FA7
:10136000771F881F991F1A9469F76095709580956B
:1013700090959B01AC01BD01CF010895EE0FFF1FB9
:0C1380000590F491E02D0994F894FFCF43
:10138C00D0070000540454044D63703235313520BD
:10139C00636F6E666967757265206275732073750D
:1013AC006363657366756C6C79004D6370323531AF
:1013BC003520636F6E66696775726520696E74653A
:1013CC007272757074732073756363657366756C74
:1013DC006C79004D63703235313520636F6E666900
:1013EC006775726520727820627566666572207307
:1013FC00756363657366756C6C790041626F7274AA
:10140C002077616974696E672E204D61782E207784
:10141C00616974696E672074696D652072656163BA
:10142C006865642E004D63703235313520737769F1
:10143C0074636820746F206D6F646520005472793A
:10144C0020746F207265736574204D637032353172
:10145C0035004D63703235313520726573657420FB
:10146C0073756363657366756C6C7920616E64204B
:10147C0073776974636820646F206D6F64652000F6
:10148C00363738393A3B3C3D000000004F07CB085B
:10149C00D106EA06DC062D070D0A006E616E0069A6
:0814AC006E66006F7666000019
:00000001FF
