:100000000C9462000C9424040C944B040C948A000D
:100010000C948A000C948A000C948A000C948A0038
:100020000C948A000C948A000C948A000C948A0028
:100030000C948A000C948A000C948A000C948A0018
:100040000C9472040C948A000C94C5070C94F70766
:100050000C948A000C948A000C948A000C948A00F8
:100060000C948A000C948A00000000080002010031
:100070000003040700000000000000000102040863
:100080001020408001020408102001020408102002
:10009000040404040404040402020202020203032E
:1000A00003030303000000002300260029000000D2
:1000B0000000250028002B0000000000240027007D
:1000C0002A00270811241FBECFEFD8E0DEBFCDBF26
:1000D00012E0A0E0B1E0EAEEF2E102C005900D927C
:1000E000A032B107D9F722E0A0E2B2E001C01D9230
:1000F000AC3DB207E1F710E0C4ECD0E004C02297B9
:10010000FE010E946F09C23CD107C9F70E946B082B
:100110000C9473090C94000082E00E94570601972A
:1001200051F483E00E945706209126023091270265
:10013000892B69F409C083E00E94570620912602AA
:1001400030912702019719F42F5F3F4F02C02150D1
:1001500031093093270220932602089583E00E94FC
:100160005706019751F482E00E945706209126021B
:1001700030912702019769F409C082E00E94570676
:100180002091260230912702892B19F42F5F3F4FCF
:1001900002C021503109309327022093260208958E
:1001A0008EBD00000DB407FEFDCF8EB50895CF9330
:1001B000DF93D82FC62F8AE00E9421066C2F8D2F47
:1001C000DF91CF910C9421061F93CF93DF93EC0125
:1001D00060E00E94D70080EA0E94D00080E00E9488
:1001E000D000182F61E0CE010E94D70062E070E0DD
:1001F00080E090E00E94EB04812FDF91CF911F916E
:1002000008950F931F93CF93DF93082F162FEA01C2
:1002100060E0CA010E94D70082E00E94D000802FD7
:100220000E94D000812F0E94D00061E0CE010E9488
:10023000D70062E070E080E090E0DF91CF911F9105
:100240000F910C94EB04CF93DF93D62FC42F48E08B
:1002500050E0682F82E30E94010148E050E06D2FDA
:1002600081E30E94010148E050E06C2F85E3DF91BB
:10027000CF910C940101CF93DF93D62FC42F48E088
:1002800050E0682F82E40E94010148E050E06D2FA9
:1002900081E40E94010148E050E06C2F85E4DF9189
:1002A000CF910C940101CF93DF93D62FC42F48E058
:1002B00050E0682F82E50E94010148E050E06D2F78
:1002C00081E50E94010148E050E06C2F85E5DF9157
:1002D000CF910C94010148E050E060E08AE20E9476
:1002E000010148E050E068EB89E20E94010148E02A
:1002F00050E065E088E20E94010180912402882399
:1003000031F068E071E08FE392E00C94BE0808954C
:1003100048E050E063E08BE20E94010180912402FA
:10032000882331F06AE271E08FE392E00C94BE081A
:1003300008951F93CF93DF93182FEB0160E0CE0158
:100340000E94D70083E00E94D000812F0E94D0003D
:1003500080E00E94D000182F61E0CE010E94D700FB
:1003600062E070E080E090E00E94EB0448E050E042
:1003700060E08CE20E940101812FDF91CF911F91FB
:100380000895CF92DF92EF92FF920F931F93CF9336
:10039000DF93062FC3E0D0E048E050E0602F8FE00D
:1003A0000E94010168E070E08EE00E949901182F20
:1003B0000E94BC046B017C0160E070E0CB0110176F
:1003C00091F0613177428105910594F468E070E025
:1003D0008EE00E949901182F0E94BC046C197D09BF
:1003E0008E099F09ECCF613177428105910564F058
:1003F00080912402882331F06BE771E08FE392E073
:100400000E94BE08219741F680912402882331F092
:1004100065EA71E08FE392E00E94B80880912402BF
:10042000882339F04AE050E0612F8FE392E00E9488
:100430002C0980912402882371F06EE671E08FE32D
:1004400092E0DF91CF911F910F91FF90EF90DF909D
:10045000CF900C94BE08DF91CF911F910F91FF9028
:10046000EF90DF90CF9008951F93CF93DF93182FD5
:10047000EB0160E0CE010E94D700812F0E94D000E6
:1004800061E0CE010E94D70062E070E080E090E081
:10049000DF91CF911F910C94EB04CF9368E070E053
:1004A00080EC0E94340268E070E08EE00E949901C6
:1004B000C82F6DEB71E08FE392E00E94B808C7FD92
:1004C00007C068E070E08EE00E949901C82FF7CF66
:1004D00080912402882331F062ED71E08FE392E095
:1004E0000E94B80880912402882341F04AE050E03D
:1004F0006C2F8FE392E0CF910C943309CF91089544
:100500000E944D020E946B010E94880160E080E021
:100510000C94C10126E040E855E260E070E08FE312
:1005200092E00E9463071092240261E088E00E943A
:10053000E80561E08AE00E94E80560E082E00E9450
:10054000E80560E083E00E94E80560E087E00E9443
:10055000E80561E084E00E94E80561E088E00E942F
:10056000210661E08AE00E942106809134028823FE
:1005700099F09FB7F89480913402813059F48DB38B
:10058000809332022DB380913302809582238DBBFC
:100590009FBF02C0909332028CE58CBD1DBC0E94AF
:1005A000CD030E94800242E062E080E40E942301C9
:1005B00042E062E080E40E943B0142E062E080E4CD
:1005C0000E9453010E94BC04609320027093210298
:1005D000809322029093230241E050E06CE870E0A7
:1005E00080E00E94040441E050E06EEA70E081E0A7
:1005F0000E94040464E670E080E090E00C94EB0458
:10060000CF92DF92EF92FF920F931F93CF93DF93DE
:1006100000D01F92CDB7DEB7182F7B0160E0C70175
:100620000E94D700812F0E94D0008E010F5F1F4FC4
:100630006E0184E0C80ED11C80E00E94D000F80159
:1006400081938F01EC15FD05B9F761E0C7010E94A8
:10065000D700898180932F028B81809330028A8119
:100660008093310281E00F900F900F90DF91CF9136
:100670001F910F91FF90EF90DF90CF900895682326
:10068000613021F468E070E082E905C0623029F44D
:1006900068E070E086E90E94000381E008950F930E
:1006A0001F931092250210922E0210922D0281E0CB
:1006B00080932C020E94BC0460932802709329024C
:1006C00080932A0290932B0287E00E94570601979D
:1006D00009F041C061E070E080E090E00E94EB042E
:1006E0000E94BC04009128021091290220912A0244
:1006F00030912B02601B710B820B930B0091000158
:1007000010910101209102013091030160177107DE
:1007100082079307C8F280912C028823A9F20091E6
:100720003002109131020B3011056CF0B80189E0F4
:100730000E94600568E270E080E090E00E94EB04B7
:1007400005501109F0CF60E070E089E00E9460057B
:1007500010922C02B9CF88E090E00E94E4008093D0
:10076000250263E00E943F0380912F02811102C0A5
:1007700061E001C060E084E00E94210660913002E7
:100780007091310289E00E94600568E270E080E0CB
:1007900090E01F910F910C94EB04CF93CFB7F89496
:1007A00080913502811127C0EAE9F0E08491E6E802
:1007B000F0E09491E82FF0E0EE0FFF1FE854FF4FB8
:1007C000A591B4918C91892321F461E08AE00E9483
:1007D000210661E08AE00E94E8058CB580618CBD4D
:1007E0008CB580648CBD61E08DE00E94E80561E01D
:1007F0008BE00E94E805809135028F5F809335027F
:10080000CFBFCF91089508958230E8F4E82FF0E04B
:10081000EE0FFF1FEC5FFE4F71836083813041F06C
:10082000809169008C7F842B80936900E89A0895F9
:1008300080916900440F551F440F551F837F842BFF
:1008400080936900E99A08951F920F920FB60F9254
:1008500011242F933F934F935F936F937F938F93C5
:100860009F93AF93BF93EF93FF93E0910401F091B7
:1008700005010995FF91EF91BF91AF919F918F91E4
:100880007F916F915F914F913F912F910F900FBE8C
:100890000F901F9018951F920F920FB60F92112470
:1008A0002F933F934F935F936F937F938F939F9378
:1008B000AF93BF93EF93FF93E0910601F09107018F
:1008C0000995FF91EF91BF91AF919F918F917F918A
:1008D0006F915F914F913F912F910F900FBE0F90AD
:1008E0001F9018951F920F920FB60F9211242F93FD
:1008F0003F938F939F93AF93BF93809137029091D3
:100900003802A0913902B0913A023091360223E0C8
:10091000230F2D3720F40196A11DB11D05C026E837
:10092000230F0296A11DB11D20933602809337023A
:1009300090933802A0933902B0933A0280913B021F
:1009400090913C02A0913D02B0913E020196A11D02
:10095000B11D80933B0290933C02A0933D02B09363
:100960003E02BF91AF919F918F913F912F910F9038
:100970000FBE0F901F9018952FB7F8946091370213
:10098000709138028091390290913A022FBF0895F8
:100990003FB7F89480913B0290913C02A0913D02B8
:1009A000B0913E0226B5A89B05C02F3F19F00196D5
:1009B000A11DB11D3FBF6627782F892F9A2F620F87
:1009C000711D811D911D42E0660F771F881F991FC1
:1009D0004A95D1F708958F929F92AF92BF92CF928E
:1009E000DF92EF92FF926B017C010E94C8044B01E1
:1009F0005C01C114D104E104F104F1F00E944A0940
:100A00000E94C804681979098A099B09683E7340E5
:100A10008105910570F321E0C21AD108E108F108BF
:100A200088EE880E83E0981EA11CB11CC114D1046D
:100A3000E104F10429F7DDCFFF90EF90DF90CF9034
:100A4000BF90AF909F908F900895789484B5826006
:100A500084BD84B5816084BD85B5826085BD85B562
:100A6000816085BDEEE6F0E0808181608083E1E811
:100A7000F0E0108280818260808380818160808349
:100A8000E0E8F0E0808181608083E1EBF0E080814C
:100A900084608083E0EBF0E0808181608083EAE71E
:100AA000F0E08081846080838081826080838081A7
:100AB000816080838081806880831092C100089566
:100AC0001F93CF93DF93182FEB0161E00E94E8059D
:100AD000209711F460E004C0CF3FD10539F461E004
:100AE000812FDF91CF911F910C942106E12FF0E02F
:100AF000E859FF4FE491E330F9F048F4E130B9F000
:100B0000E230A1F584B5806284BDC8BD34C0E73051
:100B1000E9F0E83019F1E43049F580918000806215
:100B200080938000D0938B00C0938A0024C084B54A
:100B3000806884BDC7BD1FC080918000806880939D
:100B40008000D0938900C093880015C08091B000C8
:100B500080688093B000C093B3000DC08091B00056
:100B600080628093B000C093B40005C0C038D10546
:100B70000CF0B5CFAFCFDF91CF911F9108958330A7
:100B800081F028F4813099F08230A1F00895873007
:100B9000A9F08830B9F08430D1F4809180008F7D45
:100BA00003C0809180008F7780938000089584B582
:100BB0008F7702C084B58F7D84BD08958091B00089
:100BC0008F7703C08091B0008F7D8093B00008952F
:100BD000CF93DF9390E0FC01E458FF4F2491FC0198
:100BE000E057FF4F8491882349F190E0880F991FC7
:100BF000FC01E854FF4FA591B49182559F4FFC0131
:100C0000C591D4919FB7611108C0F8948C9120953B
:100C100082238C93888182230AC0623051F4F89435
:100C20008C91322F309583238C938881822B8883FB
:100C300004C0F8948C91822B8C939FBFDF91CF914D
:100C400008950F931F93CF93DF931F92CDB7DEB715
:100C5000282F30E0F901E859FF4F8491F901E45859
:100C6000FF4F1491F901E057FF4F04910023C9F0A1
:100C7000882321F069830E94BF056981E02FF0E09D
:100C8000EE0FFF1FE255FF4FA591B4919FB7F89467
:100C90008C91611103C01095812301C0812B8C932D
:100CA0009FBF0F90DF91CF911F910F910895CF9328
:100CB000DF93282F30E0F901E859FF4F8491F901C3
:100CC000E458FF4FD491F901E057FF4FC491CC2372
:100CD00091F081110E94BF05EC2FF0E0EE0FFF1F95
:100CE000EC55FF4FA591B4912C912D2381E090E01C
:100CF00021F480E002C080E090E0DF91CF91089580
:100D0000FC01818D228D90E0805C9F4F821B9109B8
:100D10008F7399270895FC01918D828D981731F07A
:100D2000828DE80FF11D858D90E008958FEF9FEF84
:100D30000895FC01918D828D981761F0828DDF01FD
:100D4000A80FB11D5D968C91928D9F5F9F73928FBE
:100D500090E008958FEF9FEF08958DE198E0892B43
:100D600049F080E090E0892B29F00E941D08811154
:100D70000C9400000895FC01848DDF01A80FB11DC3
:100D8000A35ABF4F2C91848D90E001968F739927C1
:100D9000848FA689B7892C93A089B1898C918064AE
:100DA0008C93938D848D981306C00288F389E02D6F
:100DB00080818F7D80830895CF93DF93EC01888DB0
:100DC0008823C9F0EA89FB89808185FD05C0A8894F
:100DD000B9898C9186FD0FC00FB607FCF5CF8081D5
:100DE00085FFF2CFA889B9898C9185FFEDCFCE011F
:100DF0000E94BB06E7CFDF91CF910895CF92DF929B
:100E0000FF920F931F93CF93DF931F92CDB7DEB75F
:100E10006C0181E0D60158968C9358975B969C9113
:100E20005B975C968C915C97981307C05096ED91F8
:100E3000FC915197808185FD2EC0F601038D10E055
:100E40000F5F1F4F0F731127F02EF601848DF812DC
:100E500011C00FB607FCF9CFD6015096ED91FC9169
:100E60005197808185FFF1CFC60169830E94BB063F
:100E70006981EBCF838DE80FF11DE35AFF4F60834B
:100E8000D6015B960C935B975296ED91FC9153972C
:100E9000808180620CC0D6015696ED91FC915797E7
:100EA00060835096ED91FC9151978081806480839E
:100EB00081E090E00F90DF91CF911F910F91FF9013
:100EC000DF90CF900895BF92CF92DF92EF92FF9282
:100ED000CF93DF93EC016A017B01B22EE889F98997
:100EE00082E08083411581EE580761057105A1F00C
:100EF00060E079E08DE390E0A70196010E944B0944
:100F00002150310941095109569547953795279543
:100F1000211580E1380798F0E889F989108260E8A6
:100F200074E88EE190E0A70196010E944B092150E0
:100F30003109410951095695479537952795EC8513
:100F4000FD853083EE85FF852083188EEC89FD8931
:100F5000B082EA89FB89808180618083EA89FB898C
:100F6000808188608083EA89FB89808180688083B2
:100F7000EA89FB8980818F7D8083DF91CF91FF900B
:100F8000EF90DF90CF90BF9008951F920F920FB611
:100F90000F9211242F938F939F93EF93FF93E091E0
:100FA0004F02F09150028081E0915502F09156027B
:100FB00082FD12C09081809158028F5F8F732091C3
:100FC0005902821751F0E0915802F0E0E15CFD4FC8
:100FD000958F8093580201C08081FF91EF919F917E
:100FE0008F912F910F900FBE0F901F9018951F9209
:100FF0000F920FB60F9211242F933F934F935F934D
:101000006F937F938F939F93AF93BF93EF93FF93D0
:101010008FE392E00E94BB06FF91EF91BF91AF91E9
:101020009F918F917F916F915F914F913F912F9100
:101030000F900FBE0F901F9018958FE392E00E94C3
:10104000800621E0892B09F420E0822F0895109278
:1010500042021092410288EE93E0A0E0B0E080935B
:10106000430290934402A0934502B093460284E069
:1010700092E09093400280933F0285EC90E0909341
:101080004C0280934B0284EC90E090934E0280934C
:101090004D0280EC90E09093500280934F0281ECDF
:1010A00090E0909352028093510282EC90E09093F2
:1010B00054028093530286EC90E090935602809302
:1010C0005502109258021092590210925A02109230
:1010D0005B02089508950E9425050E946A080E94F7
:1010E0008A02CDEAD6E00E944F032097E1F30E94E6
:1010F000AD06F9CFCF92DF92EF92FF920F931F933D
:10110000CF93DF937C016A01EB0100E010E00C1546
:101110001D0571F06991D701ED91FC910190F0816D
:10112000E02DC7010995892B19F00F5F1F4FEFCFF5
:10113000C801DF91CF911F910F91FF90EF90DF9049
:10114000CF9008956115710581F0DB010D900020AD
:10115000E9F7AD0141505109461B570BDC01ED91F8
:10116000FC910280F381E02D099480E090E00895E5
:101170000C94A20860E172E00C94A2080F931F93F4
:10118000CF93DF93EC010E94A2088C01CE010E9454
:10119000BA08800F911FDF91CF911F910F91089591
:1011A0008F929F92AF92BF92DF92EF92FF920F9336
:1011B0001F93CF93DF93CDB7DEB7A1970FB6F89407
:1011C000DEBF0FBECDBF7C01F42FD52ECB0119A2FF
:1011D000223008F42AE08E010F5D1F4F822E912CE1
:1011E000A12CB12C6F2F7D2DA50194010E944B09DC
:1011F000F22FD32ECA01015011096A3014F4E0E332
:1012000001C0E7E3E60FD801EC93232B242B252B19
:1012100049F7B801C7010E94A208A1960FB6F89439
:10122000DEBF0FBECDBFDF91CF911F910F91FF9019
:10123000EF90DF90BF90AF909F908F900895211511
:10124000310541F4DC01ED91FC910190F081E02D3C
:10125000642F09940C94D0089A01462F50E060E066
:1012600070E00C941F090F931F93CF93DF93EC0151
:101270009A01462F50E060E070E00E941F098C0147
:10128000CE010E94BA08800F911FDF91CF911F916C
:101290000F9108950895A1E21A2EAA1BBB1BFD0110
:1012A0000DC0AA1FBB1FEE1FFF1FA217B307E40745
:1012B000F50720F0A21BB30BE40BF50B661F771F9D
:1012C000881F991F1A9469F760957095809590957D
:1012D0009B01AC01BD01CF010895EE0FFF1F0590EA
:0A12E000F491E02D0994F894FFCF7B
:1012EA00D0070000030403044D6370323531352002
:1012FA00636F6E66696775726520627573207375B0
:10130A006363657366756C6C79004D637032353151
:10131A003520636F6E66696775726520696E7465DC
:10132A007272757074732073756363657366756C16
:10133A006C79004D63703235313520636F6E6669A2
:10134A0067757265207278206275666665722073A9
:10135A00756363657366756C6C790041626F72744C
:10136A002077616974696E672E204D61782E207727
:10137A00616974696E672074696D6520726561635D
:10138A006865642E004D6370323531352073776994
:10139A0074636820746F206D6F64652000547279DD
:1013AA0020746F207265736574204D637032353115
:1013BA0035004D637032353135207265736574209E
:1013CA0073756363657366756C6C7920616E6420EE
:1013DA0073776974636820646F206D6F6465200099
:1013EA0000000000FE067A08800699068B06DC06D5
:1013FA000D0A006E616E00696E66006F7666000007
:00000001FF
